{
  "_format": "hh-sol-artifact-1",
  "contractName": "MultiTransfer",
  "sourceName": "contracts/MultiTransfer.sol",
  "abi": [
    {
      "inputs": [],
      "stateMutability": "nonpayable",
      "type": "constructor"
    },
    {
      "inputs": [
        {
          "internalType": "address[]",
          "name": "recipients",
          "type": "address[]"
        },
        {
          "internalType": "uint256[]",
          "name": "amounts",
          "type": "uint256[]"
        }
      ],
      "name": "multiTransfer",
      "outputs": [],
      "stateMutability": "payable",
      "type": "function"
    },
    {
      "inputs": [],
      "name": "owner",
      "outputs": [
        {
          "internalType": "address",
          "name": "",
          "type": "address"
        }
      ],
      "stateMutability": "view",
      "type": "function"
    },
    {
      "inputs": [],
      "name": "withdraw",
      "outputs": [],
      "stateMutability": "nonpayable",
      "type": "function"
    },
    {
      "stateMutability": "payable",
      "type": "receive"
    }
  ],
  "bytecode": "0x6080604052348015600f57600080fd5b50336000806101000a81548173ffffffffffffffffffffffffffffffffffffffff021916908373ffffffffffffffffffffffffffffffffffffffff1602179055506108148061005f6000396000f3fe6080604052600436106100385760003560e01c80631e89d545146100445780633ccfd60b146100605780638da5cb5b146100775761003f565b3661003f57005b600080fd5b61005e6004803603810190610059919061045d565b6100a2565b005b34801561006c57600080fd5b5061007561027d565b005b34801561008357600080fd5b5061008c610374565b604051610099919061051f565b60405180910390f35b8181905084849050146100ea576040517f08c379a00000000000000000000000000000000000000000000000000000000081526004016100e1906105bd565b60405180910390fd5b6000805b8383905081101561012d5783838281811061010c5761010b6105dd565b5b905060200201358261011e9190610645565b915080806001019150506100ee565b5080341015610171576040517f08c379a0000000000000000000000000000000000000000000000000000000008152600401610168906106c5565b60405180910390fd5b60005b8585905081101561021357858582818110610192576101916105dd565b5b90506020020160208101906101a79190610711565b73ffffffffffffffffffffffffffffffffffffffff166108fc8585848181106101d3576101d26105dd565b5b905060200201359081150290604051600060405180830381858888f19350505050158015610205573d6000803e3d6000fd5b508080600101915050610174565b5060008134610222919061073e565b90506000811115610275573373ffffffffffffffffffffffffffffffffffffffff166108fc829081150290604051600060405180830381858888f19350505050158015610273573d6000803e3d6000fd5b505b505050505050565b60008054906101000a900473ffffffffffffffffffffffffffffffffffffffff1673ffffffffffffffffffffffffffffffffffffffff163373ffffffffffffffffffffffffffffffffffffffff161461030b576040517f08c379a0000000000000000000000000000000000000000000000000000000008152600401610302906107be565b60405180910390fd5b60008054906101000a900473ffffffffffffffffffffffffffffffffffffffff1673ffffffffffffffffffffffffffffffffffffffff166108fc479081150290604051600060405180830381858888f19350505050158015610371573d6000803e3d6000fd5b50565b60008054906101000a900473ffffffffffffffffffffffffffffffffffffffff1681565b600080fd5b600080fd5b600080fd5b600080fd5b600080fd5b60008083601f8401126103c7576103c66103a2565b5b8235905067ffffffffffffffff8111156103e4576103e36103a7565b5b602083019150836020820283011115610400576103ff6103ac565b5b9250929050565b60008083601f84011261041d5761041c6103a2565b5b8235905067ffffffffffffffff81111561043a576104396103a7565b5b602083019150836020820283011115610456576104556103ac565b5b9250929050565b6000806000806040858703121561047757610476610398565b5b600085013567ffffffffffffffff8111156104955761049461039d565b5b6104a1878288016103b1565b9450945050602085013567ffffffffffffffff8111156104c4576104c361039d565b5b6104d087828801610407565b925092505092959194509250565b600073ffffffffffffffffffffffffffffffffffffffff82169050919050565b6000610509826104de565b9050919050565b610519816104fe565b82525050565b60006020820190506105346000830184610510565b92915050565b600082825260208201905092915050565b7f526563697069656e747320616e6420616d6f756e7473206c656e677468206d6960008201527f736d617463680000000000000000000000000000000000000000000000000000602082015250565b60006105a760268361053a565b91506105b28261054b565b604082019050919050565b600060208201905081810360008301526105d68161059a565b9050919050565b7f4e487b7100000000000000000000000000000000000000000000000000000000600052603260045260246000fd5b6000819050919050565b7f4e487b7100000000000000000000000000000000000000000000000000000000600052601160045260246000fd5b60006106508261060c565b915061065b8361060c565b925082820190508082111561067357610672610616565b5b92915050565b7f496e73756666696369656e7420424e422073656e740000000000000000000000600082015250565b60006106af60158361053a565b91506106ba82610679565b602082019050919050565b600060208201905081810360008301526106de816106a2565b9050919050565b6106ee816104fe565b81146106f957600080fd5b50565b60008135905061070b816106e5565b92915050565b60006020828403121561072757610726610398565b5b6000610735848285016106fc565b91505092915050565b60006107498261060c565b91506107548361060c565b925082820390508181111561076c5761076b610616565b5b92915050565b7f4f6e6c79206f776e65722063616e207769746864726177000000000000000000600082015250565b60006107a860178361053a565b91506107b382610772565b602082019050919050565b600060208201905081810360008301526107d78161079b565b905091905056fea26469706673582212203354e4ceb02501ce22fc37e34c3c6b4d41f61b3f62a99db286937e21a2e658cd64736f6c634300081c0033",
  "linkReferences": {},
  "deployedLinkReferences": {}
}